{
  "abi": [
    {
      "inputs": [],
      "name": "count",
      "outputs": [
        {
          "internalType": "uint256",
          "name": "",
          "type": "uint256"
        }
      ],
      "stateMutability": "view",
      "type": "function"
    },
    {
      "inputs": [],
      "name": "decrement",
      "outputs": [],
      "stateMutability": "nonpayable",
      "type": "function"
    },
    {
      "inputs": [],
      "name": "getCount",
      "outputs": [
        {
          "internalType": "uint256",
          "name": "",
          "type": "uint256"
        }
      ],
      "stateMutability": "view",
      "type": "function"
    },
    {
      "inputs": [],
      "name": "increment",
      "outputs": [],
      "stateMutability": "nonpayable",
      "type": "function"
    }
  ],
  "bytecode": {
    "object": "0x608060405234801561001057600080fd5b50610113806100206000396000f3fe6080604052348015600f57600080fd5b506004361060465760003560e01c806306661abd14604b5780632baeceb7146065578063a87d942c14606d578063d09de08a146074575b600080fd5b605360005481565b60405190815260200160405180910390f35b606b607a565b005b6000546053565b606b6091565b6001600080828254608a919060b7565b9091555050565b6001600080828254608a919060cd565b634e487b7160e01b600052601160045260246000fd5b8181038181111560c75760c760a1565b92915050565b8082018082111560c75760c760a156fea2646970667358221220ac532a8d91a5e42ea02bcac7d8c690048e35502f0e583abcda830c183ef0101764736f6c63430008110033",
    "linkReferences": {}
  },
  "methodIdentifiers": {
    "count()": "06661abd",
    "decrement()": "2baeceb7",
    "getCount()": "a87d942c",
    "increment()": "d09de08a"
  },
  "id": 18
}