{
  "abi": [
    {
      "inputs": [],
      "stateMutability": "nonpayable",
      "type": "constructor"
    },
    {
      "anonymous": false,
      "inputs": [
        {
          "indexed": false,
          "internalType": "address",
          "name": "from",
          "type": "address"
        },
        {
          "indexed": false,
          "internalType": "uint256",
          "name": "amount",
          "type": "uint256"
        }
      ],
      "name": "Deposit",
      "type": "event"
    },
    {
      "inputs": [],
      "name": "owner",
      "outputs": [
        {
          "internalType": "address",
          "name": "",
          "type": "address"
        }
      ],
      "stateMutability": "view",
      "type": "function"
    },
    {
      "inputs": [
        {
          "internalType": "address",
          "name": "Owner",
          "type": "address"
        }
      ],
      "name": "setOwner",
      "outputs": [],
      "stateMutability": "nonpayable",
      "type": "function"
    },
    {
      "inputs": [
        {
          "internalType": "uint256",
          "name": "amount",
          "type": "uint256"
        }
      ],
      "name": "withdraw",
      "outputs": [],
      "stateMutability": "nonpayable",
      "type": "function"
    },
    {
      "stateMutability": "payable",
      "type": "receive"
    }
  ],
  "bytecode": {
    "object": "0x608060405234801561001057600080fd5b50600080546001600160a01b03191633179055610271806100326000396000f3fe6080604052600436106100385760003560e01c806313af40351461007c5780632e1a7d4d1461009e5780638da5cb5b146100be57600080fd5b3661007757604080513381523460208201527fe1fffcc4923d04b559f4d29a8bfc6cda04eb5b0d3c460751c2402c5c5cc9109c910160405180910390a1005b600080fd5b34801561008857600080fd5b5061009c6100973660046101f2565b6100fa565b005b3480156100aa57600080fd5b5061009c6100b9366004610222565b610171565b3480156100ca57600080fd5b506000546100de906001600160a01b031681565b6040516001600160a01b03909116815260200160405180910390f35b6000546001600160a01b0316331461014f5760405162461bcd60e51b815260206004820152601360248201527231b0b63632b91034b9903737ba1037bbb732b960691b60448201526064015b60405180910390fd5b600080546001600160a01b0319166001600160a01b0392909216919091179055565b6000546001600160a01b031633146101c15760405162461bcd60e51b815260206004820152601360248201527231b0b63632b91034b9903737ba1037bbb732b960691b6044820152606401610146565b604051339082156108fc029083906000818181858888f193505050501580156101ee573d6000803e3d6000fd5b5050565b60006020828403121561020457600080fd5b81356001600160a01b038116811461021b57600080fd5b9392505050565b60006020828403121561023457600080fd5b503591905056fea26469706673582212204c62bef3b3854e1197b638d803bcc9fd5b70d3274a58851d84153953ea9e77b264736f6c63430008110033",
    "linkReferences": {}
  },
  "methodIdentifiers": {
    "owner()": "8da5cb5b",
    "setOwner(address)": "13af4035",
    "withdraw(uint256)": "2e1a7d4d"
  },
  "id": 18
}