{
  "abi": [
    {
      "inputs": [],
      "name": "bid",
      "outputs": [],
      "stateMutability": "view",
      "type": "function"
    },
    {
      "inputs": [],
      "name": "end",
      "outputs": [],
      "stateMutability": "view",
      "type": "function"
    },
    {
      "inputs": [],
      "name": "endAt",
      "outputs": [
        {
          "internalType": "uint256",
          "name": "",
          "type": "uint256"
        }
      ],
      "stateMutability": "view",
      "type": "function"
    },
    {
      "inputs": [],
      "name": "startAt",
      "outputs": [
        {
          "internalType": "uint256",
          "name": "",
          "type": "uint256"
        }
      ],
      "stateMutability": "view",
      "type": "function"
    }
  ],
  "bytecode": {
    "object": "0x60806040526100114262015180610036565b600055610021426202a300610036565b60015534801561003057600080fd5b5061005d565b8082018082111561005757634e487b7160e01b600052601160045260246000fd5b92915050565b6101508061006c6000396000f3fe608060405234801561001057600080fd5b506004361061004c5760003560e01c80631998aeef146100515780637cc3ae8c1461005b578063c744656514610076578063efbe1c1c1461007f575b600080fd5b610059610087565b005b61006460015481565b60405190815260200160405180910390f35b61006460005481565b6100596100da565b600054421015801561009a575060015442105b6100d85760405162461bcd60e51b815260206004820152600a60248201526918d85b9b9bdd08189a5960b21b60448201526064015b60405180910390fd5b565b6001544210156100d85760405162461bcd60e51b815260206004820152600b60248201526a031b0b73737ba1032b732160ad1b60448201526064016100cf56fea264697066735822122083aa2f0b2d361bc1ae22b15aff486cfd73d01946b1a12ca93b426de01f4c72c864736f6c63430008110033",
    "linkReferences": {}
  },
  "methodIdentifiers": {
    "bid()": "1998aeef",
    "end()": "efbe1c1c",
    "endAt()": "7cc3ae8c",
    "startAt()": "c7446565"
  },
  "id": 18
}