{
  "abi": [
    {
      "inputs": [],
      "name": "bad",
      "outputs": [],
      "stateMutability": "nonpayable",
      "type": "function"
    },
    {
      "inputs": [],
      "name": "bad1",
      "outputs": [],
      "stateMutability": "nonpayable",
      "type": "function"
    },
    {
      "inputs": [],
      "name": "good",
      "outputs": [],
      "stateMutability": "nonpayable",
      "type": "function"
    },
    {
      "inputs": [],
      "name": "good1",
      "outputs": [],
      "stateMutability": "nonpayable",
      "type": "function"
    }
  ],
  "bytecode": {
    "object": "0x60806040526064600055600060015534801561001a57600080fd5b506101c18061002a6000396000f3fe608060405234801561001057600080fd5b506004361061004c5760003560e01c80632fba38c7146100515780639c3674fc1461005b578063aa8fb40b14610063578063f127dc681461006b575b600080fd5b610059610073565b005b6100596100b1565b6100596100e9565b61005961012a565b60015460005b6000548110156100ab576001805490600061009383610164565b919050555080806100a390610164565b915050610079565b50600155565b60005b6000548110156100e657600180549060006100ce83610164565b919050555080806100de90610164565b9150506100b4565b50565b6000805460015490915b82811015610123576001805490600061010b83610164565b9190505550808061011b90610164565b9150506100f3565b5060015550565b60008054905b81811015610160576001805490600061014883610164565b9190505550808061015890610164565b915050610130565b5050565b60006001820161018457634e487b7160e01b600052601160045260246000fd5b506001019056fea2646970667358221220fe1f8ca6c9c8d265f024a2e1d0948b9db3240e9ce8a76a777d88831351087e2c64736f6c63430008110033",
    "linkReferences": {}
  },
  "methodIdentifiers": {
    "bad()": "9c3674fc",
    "bad1()": "f127dc68",
    "good()": "aa8fb40b",
    "good1()": "2fba38c7"
  },
  "id": 18
}