{
  "abi": [
    {
      "inputs": [],
      "stateMutability": "nonpayable",
      "type": "constructor"
    },
    {
      "inputs": [
        {
          "internalType": "address",
          "name": "_owner",
          "type": "address"
        }
      ],
      "name": "changeOwnerShip",
      "outputs": [],
      "stateMutability": "nonpayable",
      "type": "function"
    },
    {
      "inputs": [],
      "name": "owner",
      "outputs": [
        {
          "internalType": "address",
          "name": "",
          "type": "address"
        }
      ],
      "stateMutability": "view",
      "type": "function"
    },
    {
      "inputs": [
        {
          "internalType": "uint256",
          "name": "amount",
          "type": "uint256"
        }
      ],
      "name": "withdraw",
      "outputs": [],
      "stateMutability": "nonpayable",
      "type": "function"
    },
    {
      "stateMutability": "payable",
      "type": "receive"
    }
  ],
  "bytecode": {
    "object": "0x608060405234801561001057600080fd5b50600080546001600160a01b0319163317905561023f806100326000396000f3fe6080604052600436106100385760003560e01c806302be8e4e146100445780632e1a7d4d146100665780638da5cb5b1461008657600080fd5b3661003f57005b600080fd5b34801561005057600080fd5b5061006461005f3660046101c0565b6100c2565b005b34801561007257600080fd5b506100646100813660046101f0565b61013c565b34801561009257600080fd5b506000546100a6906001600160a01b031681565b6040516001600160a01b03909116815260200160405180910390f35b6000546001600160a01b0316331461011a5760405162461bcd60e51b815260206004820152601660248201527531b0b63632b91034b9903737ba1030b71037bbb732b960511b60448201526064015b60405180910390fd5b600080546001600160a01b0319166001600160a01b0392909216919091179055565b6000546001600160a01b0316331461018f5760405162461bcd60e51b815260206004820152601660248201527531b0b63632b91034b9903737ba1030b71037bbb732b960511b6044820152606401610111565b604051339082156108fc029083906000818181858888f193505050501580156101bc573d6000803e3d6000fd5b5050565b6000602082840312156101d257600080fd5b81356001600160a01b03811681146101e957600080fd5b9392505050565b60006020828403121561020257600080fd5b503591905056fea26469706673582212200b728f75e590776f245b4ba1b30453613d4e89aea0ee58813ddf98279510af5564736f6c63430008110033",
    "linkReferences": {}
  },
  "methodIdentifiers": {
    "changeOwnerShip(address)": "02be8e4e",
    "owner()": "8da5cb5b",
    "withdraw(uint256)": "2e1a7d4d"
  },
  "id": 19
}